{"abi":[{"type":"function","name":"counter","inputs":[],"outputs":[{"name":"","type":"uint256","internalType":"uint256"}],"stateMutability":"view"},{"type":"function","name":"kickoff","inputs":[{"name":"_invoker","type":"address","internalType":"contract Token"}],"outputs":[{"name":"","type":"uint256","internalType":"uint256"}],"stateMutability":"nonpayable"}],"bytecode":{"object":"0x608060405234801561000f575f80fd5b506102b48061001d5f395ff3fe608060405234801561000f575f80fd5b5060043610610034575f3560e01c8063248bf0301461003857806361bc221a14610068575b5f80fd5b610052600480360381019061004d91906101ae565b610086565b60405161005f91906101f1565b60405180910390f35b61007061013a565b60405161007d91906101f1565b60405180910390f35b5f8173ffffffffffffffffffffffffffffffffffffffff163373ffffffffffffffffffffffffffffffffffffffff16036100d5575f808154809291906100cb90610237565b9190505550610131565b8173ffffffffffffffffffffffffffffffffffffffff1663cab7f5216040518163ffffffff1660e01b81526004015f604051808303815f87803b15801561011a575f80fd5b505af115801561012c573d5f803e3d5ffd5b505050505b5f549050919050565b5f5481565b5f80fd5b5f73ffffffffffffffffffffffffffffffffffffffff82169050919050565b5f61016c82610143565b9050919050565b5f61017d82610162565b9050919050565b61018d81610173565b8114610197575f80fd5b50565b5f813590506101a881610184565b92915050565b5f602082840312156101c3576101c261013f565b5b5f6101d08482850161019a565b91505092915050565b5f819050919050565b6101eb816101d9565b82525050565b5f6020820190506102045f8301846101e2565b92915050565b7f4e487b71000000000000000000000000000000000000000000000000000000005f52601160045260245ffd5b5f610241826101d9565b91507fffffffffffffffffffffffffffffffffffffffffffffffffffffffffffffffff82036102735761027261020a565b5b60018201905091905056fea264697066735822122062caeb484451f2d620ecc3b4cecfb40b09fb4b2a72ab7d1fb01f6117d73046d364736f6c63430008140033","linkReferences":{}},"methodIdentifiers":{"counter()":"61bc221a","kickoff(address)":"248bf030"},"id":0}