{"abi":[{"type":"function","name":"invoke","inputs":[],"outputs":[],"stateMutability":"nonpayable"}],"bytecode":{"object":"0x608060405234801561000f575f80fd5b506101de8061001d5f395ff3fe608060405234801561000f575f80fd5b5060043610610029575f3560e01c8063cab7f5211461002d575b5f80fd5b610035610037565b005b3373ffffffffffffffffffffffffffffffffffffffff1663248bf030306040518263ffffffff1660e01b8152600401610070919061012d565b6020604051808303815f875af115801561008c573d5f803e3d5ffd5b505050506040513d601f19601f820116820180604052508101906100b0919061017d565b50565b5f73ffffffffffffffffffffffffffffffffffffffff82169050919050565b5f819050919050565b5f6100f56100f06100eb846100b3565b6100d2565b6100b3565b9050919050565b5f610106826100db565b9050919050565b5f610117826100fc565b9050919050565b6101278161010d565b82525050565b5f6020820190506101405f83018461011e565b92915050565b5f80fd5b5f819050919050565b61015c8161014a565b8114610166575f80fd5b50565b5f8151905061017781610153565b92915050565b5f6020828403121561019257610191610146565b5b5f61019f84828501610169565b9150509291505056fea264697066735822122008993229231795549e4dcfa6b75e53814a3b18ac34cd018987c1f4a01471466264736f6c63430008140033","linkReferences":{}},"methodIdentifiers":{"invoke()":"cab7f521"},"id":0}