{"abi":[{"type":"constructor","inputs":[{"name":"_hello","type":"address","internalType":"address"},{"name":"_reentrant","type":"address","internalType":"address"}],"stateMutability":"nonpayable"},{"type":"function","name":"FACET_HELLO","inputs":[],"outputs":[{"name":"","type":"address","internalType":"address"}],"stateMutability":"view"},{"type":"function","name":"FACET_REENTRANT","inputs":[],"outputs":[{"name":"","type":"address","internalType":"address"}],"stateMutability":"view"},{"type":"function","name":"hello","inputs":[],"outputs":[{"name":"","type":"uint256","internalType":"uint256"}],"stateMutability":"nonpayable"},{"type":"function","name":"reentrant","inputs":[],"outputs":[{"name":"","type":"uint256","internalType":"uint256"}],"stateMutability":"nonpayable"}],"bytecode":{"object":"0x60c060405234801561000f575f80fd5b506040516103af3803806103af833981810160405281019061003191906100fe565b8173ffffffffffffffffffffffffffffffffffffffff1660808173ffffffffffffffffffffffffffffffffffffffff16815250508073ffffffffffffffffffffffffffffffffffffffff1660a08173ffffffffffffffffffffffffffffffffffffffff1681525050505061013c565b5f80fd5b5f73ffffffffffffffffffffffffffffffffffffffff82169050919050565b5f6100cd826100a4565b9050919050565b6100dd816100c3565b81146100e7575f80fd5b50565b5f815190506100f8816100d4565b92915050565b5f8060408385031215610114576101136100a0565b5b5f610121858286016100ea565b9250506020610132858286016100ea565b9150509250929050565b60805160a0516102466101695f395f818160f5015261011d01525f818160cc015261014601526102465ff3fe608060405234801561000f575f80fd5b506004361061004a575f3560e01c806319ff1d211461004e578063813c88121461006c578063e9ca4e9a1461008a578063ee5d2eb5146100a8575b5f80fd5b6100566100c6565b604051610063919061019f565b60405180910390f35b6100746100f3565b60405161008191906101f7565b60405180910390f35b610092610117565b60405161009f919061019f565b60405180910390f35b6100b0610144565b6040516100bd91906101f7565b60405180910390f35b5f6100f07f0000000000000000000000000000000000000000000000000000000000000000610168565b90565b7f000000000000000000000000000000000000000000000000000000000000000081565b5f6101417f0000000000000000000000000000000000000000000000000000000000000000610168565b90565b7f000000000000000000000000000000000000000000000000000000000000000081565b365f80375f80365f845af43d5f803e805f8114610183573d5ff35b3d5ffd5b5f819050919050565b61019981610187565b82525050565b5f6020820190506101b25f830184610190565b92915050565b5f73ffffffffffffffffffffffffffffffffffffffff82169050919050565b5f6101e1826101b8565b9050919050565b6101f1816101d7565b82525050565b5f60208201905061020a5f8301846101e8565b9291505056fea264697066735822122016f5fcbdb4d7bac1aede8fe67a4e863b8836769c5cbd9de96508398bf7b886cc64736f6c63430008140033","linkReferences":{}},"methodIdentifiers":{"FACET_HELLO()":"ee5d2eb5","FACET_REENTRANT()":"813c8812","hello()":"19ff1d21","reentrant()":"e9ca4e9a"},"id":0}